:1000000092C0B6C0B5C0B4C0B3C0B2C0B1C0B0C079
:10001000AFC023C6ADC035C871C8AAC0A9C0A8C0AA
:10002000A7C0A6C0A5C016C449C448C447C446C496
:1000300045C444C443C442C441C440C43FC43EC494
:100040003DC43CC43BC43AC439C438C437C436C4C4
:1000500035C434C433C432C431C430C42FC42EC4F4
:100060002DC42CC4FFC3F8C3F9C328C427C426C4B5
:1000700025C424C423C422C421C420C41FC41EC454
:10008000EFC31DC4F1C31AC419C418C417C416C4DD
:1000900015C414C413C412C411C410C40FC40EC4B4
:1000A0000DC40CC40BC40AC406C4E0C3E3C3E8C354
:1000B000E7C3E6C3E9C3FFC3FEC3FDC3E9C3EAC3A5
:1000C000EDC3F4C3F3C3F2C3F1C3F8C3F7C3F6C37C
:1000D000F5C3E8C3000000000000000000030405B1
:1000E0000000000000000000010204081020408011
:1000F0000102040810200102040810200404040472
:1001000004040404020202020202030303030303C1
:100110000000000038003500320000000000370009
:1001200034003100330911241FBECFE5D4E0DEBF17
:10013000CDBF10E0A0E6B0E0E2E1F4E102C005903E
:100140000D92A838B107D9F711E0A8E8B0E001C0D6
:100150001D92A53DB107E1F711E0C6E2D1E003C071
:100160002297FE0147D9C432D107D1F7E6D64FC94D
:1001700047CFDC01ED91FC910190F081E02D0994D5
:10018000CED140E855E260E070E087E191E0ECD745
:1001900089E090E028D480938800909389000895A6
:1001A0006AE070E087E191E0E4CFEF92FF920F9375
:1001B0001F93CF93DF937B01EC018C0109C0F80101
:1001C00061918F01772767FD709587E191E0D1DF1D
:1001D000C8018C1B9D0B8E159F058CF3DF91CF9171
:1001E0001F910F91FF90EF900895EF92FF920F9360
:1001F0001F93CF93DF937B01EC018C0109C0F801C1
:1002000061918F01772767FD709587E191E0B1DFFC
:10021000C8018C1B9D0B8E159F058CF3DF91CF9130
:100220001F910F91FF90EF90089580918A00909117
:100230008B00892B49F069E070E081EA90E0B5DF3E
:1002400010928B0010928A00809190009091910002
:10025000892B59F060919400709195008AEA90E0A2
:10026000C4DF109291001092900080918C009091C8
:100270008D00892B29F094DF10928D0010928C0054
:1002800080918E0090918F00892B49F06BE070E097
:1002900086E990E0AADF10928F0010928E000895F8
:1002A000CF93DF9387E191E051D6892B11F1109222
:1002B00093001092920087E191E077D6E091880058
:1002C000F09189008083C1E0D0E00BC087E191E02C
:1002D0006CD6E0918800F0918900EC0FFD1F8083BF
:1002E000219687E191E032D6892B81F7C930D1057B
:1002F000C4F38091880090918900DF91CF918AC2E8
:1003000029E0FC01A1EAB0E001900D922A95E1F705
:1003100081E090E090938B0080938A000895CF93C2
:10032000DF93CDB7DEB72B970FB6F894DEBF0FBEC5
:10033000CDBFFE0131968BE0DF011D928A95E9F772
:100340008BE0A6E9B0E001900D928A95E1F781E09B
:1003500090E090938F0080938E002B960FB6F894C8
:10036000DEBF0FBECDBFDF91CF910895CF93DF9356
:10037000D62FC72F2AEA30E0462F572FBC01C901DC
:100380003DD8D0939400C093950081E090E0909385
:10039000910080939000DF91CF910895CF93DF93E8
:1003A000CDB7DEB729970FB6F894DEBF0FBECDBF2D
:1003B000FC01CE01019629E0DC011D922A95E9F7A6
:1003C0002EE6298328E0A1ECB1E001900D922A9558
:1003D000E1F796DFA4DF29960FB6F894DEBF0FBED3
:1003E000CDBFDF91CF910895CF93DF93CDB7DEB727
:1003F00029970FB6F894DEBF0FBECDBFFC01CE012A
:10040000019629E0DC011D922A95E9F727E7298367
:1004100028E0A9ECB1E001900D922A95E1F770DF98
:100420007EDF29960FB6F894DEBF0FBECDBFDF91F9
:10043000CF910895CF93DF93B9D261E08DE00FD5CE
:1004400061E08CE00CD561E08BE009D5C5E0D0E03F
:1004500061E08DE03CD568EE73E080E090E072D41E
:1004600060E08DE034D564EF71E080E090E06AD424
:10047000219771F7C5E0D0E061E08DE028D568EC08
:1004800070E080E090E05ED460E08DE020D568EC24
:1004900070E080E090E056D4219771F76CE370E053
:1004A0008CE390E061D281E090E048D282E090E07D
:1004B00045D260E273E080E090E044D481E090E0D7
:1004C00007D282E090E004D268EE73E080E090E032
:1004D00039D481E090E01CD282E090E019D260E251
:1004E00073E080E090E02ED481E090E0F1D182E0F2
:1004F00090E0EED188E0E6E6F0E0A1ECB1E001901A
:100500000D928A95E1F788E0EFE6F0E0A9ECB1E022
:1005100001900D928A95E1F7DF91CF9108958ADFDE
:1005200010929300109292001092910010929000FD
:1005300010928B0010928A0010928D0010928C0005
:1005400010928F0010928E000895CF93DF93CDB755
:10055000DEB729970FB6F894DEBF0FBECDBFCE0130
:10056000019629E0FC0111922A95E9F769E070E013
:10057000FDDE29960FB6F894DEBF0FBECDBFDF912A
:10058000CF910895CF93DF93CDB7DEB727970FB6FE
:10059000F894DEBF0FBECDBFCE01019627E0FC016F
:1005A00011922A95E9F767E070E0E0DECEDF27964A
:1005B0000FB6F894DEBF0FBECDBFDF91CF91089587
:1005C000CF93DF93CDB7DEB729970FB6F894DEBF90
:1005D0000FBECDBFCE01019629E0FC0111922A95F4
:1005E000E9F72EE429838CDE68E070E081EC91E08D
:1005F000BDDE29960FB6F894DEBF0FBECDBFDF91EA
:10060000CF910895CF93DF93CDB7DEB729970FB67B
:10061000F894DEBF0FBECDBFCE01019629E0FC01EC
:1006200011922A95E9F720E429836ADE68E070E0F8
:1006300089EC91E09BDE29960FB6F894DEBF0FBEE1
:10064000CDBFDF91CF910895CF93DF93CDB7DEB7C4
:1006500029970FB6F894DEBF0FBECDBFCE0101962D
:1006600029E0FC0111922A95E9F720E5298348DE6B
:1006700029960FB6F894DEBF0FBECDBFDF91CF91A4
:10068000089561E08DE023C460E08DE020C461E066
:100690008CE01DC460E08CE01AC40F931F93CF93CD
:1006A000DF93CDB7DEB729970FB6F894DEBF0FBE44
:1006B000CDBF8E010F5F1F4F89E0F80111928A951F
:1006C000E9F78CE6898381E090E002D182E090E056
:1006D000FFD0C80115DE23DE29960FB6F894DEBFE1
:1006E0000FBECDBFDF91CF911F910F910895EF9273
:1006F000FF920F931F93CF93DF93CDB7DEB7299768
:100700000FB6F894DEBF0FBECDBF082F162F84366C
:1007100060F4282F30E041E0429FC001439F900DDC
:10072000921B112483569D4909C0843659F08FEFDE
:10073000089F90011124C9018B59944663E670E02B
:100740000ED6E62E143668F4412F50E081E0849FE7
:100750009001859F300D341B1124C90183569D499A
:1007600009C0143659F08FEF189F90011124C90168
:100770008B59944663E670E0F2D5F62E6F2D70E04B
:100780008E2D90E0F1D081E090E0043610F4D6D0C8
:1007900005C0043611F0BCD001C09AD082E090E0D0
:1007A000143610F4CBD005C0143611F0B1D001C00E
:1007B0008FD08DE68983EA82FB820C831D831E82A3
:1007C0001F8218861986CE0101969ADDA8DD29962A
:1007D0000FB6F894DEBF0FBECDBFDF91CF911F9152
:1007E0000F91FF90EF900895CF93C82F70E08BE0AA
:1007F000EDD228EE33E0C29FB001C39F700D1124EB
:10080000882777FD8095982F9DD260E070E08BE07F
:10081000CF91DCC2CF93DF93CDB7DEB72B970FB666
:10082000F894DEBF0FBECDBFFC01CE01019629E0DA
:10083000DC011D922A95E9F720E52983408150E0EB
:100840004152510947355105C8F54D5E5F4F4F93F1
:100850005F930895EFDD33C078DE31C093DE2FC0A3
:10086000AFDE2DC0CFDE2BC0EFDE29C08A879B878D
:1008700008DF03C08A879B8707DF8A859B851BC0AB
:100880008A879B8704DFF9CF8A879B8703DFF5CFB1
:1008900004DF15C0628181812ADF11C0CF0101967A
:1008A0007DDD0DC0CF0101969FDD09C06281818190
:1008B0009BDFCE01019624DD32DD01C021DD2B96C8
:1008C0000FB6F894DEBF0FBECDBFDF91CF91089574
:1008D000CF93DF93EC016EE170E080E090E032D2E4
:1008E000C130D10531F460E082E0F1D260E083E014
:1008F00007C0229731F460E086E0E9D260E087E04B
:10090000E6D26EE170E080E090E0DF91CF911AC214
:100910008130910531F461E082E0D9D260E083E07A
:1009200007C0029731F460E086E0D1D261E087E051
:10093000CED26EE170E080E090E004C2813091059B
:1009400031F460E082E0C3D261E083E007C0029747
:1009500031F461E086E0BBD260E087E0B8D26EE1BE
:1009600070E080E090E0EEC1CF93DF939C018F3F79
:10097000910519F014F02FEF30E0EB016F3F710596
:1009800019F014F0CFEFD0E02332310514F423E254
:1009900030E0C332D10514F4C3E2D0E0B90189E0FC
:1009A00015D2BE018AE0DF91CF9110C261E089E0EB
:1009B00056D261E08AE053D261E082E050D261E039
:1009C00083E04DD261E086E04AD261E087E047D221
:1009D00060E070E080E090E0C7DF82E090E078DFE8
:1009E00081E090E075CF0F931F93CF93DF93823018
:1009F000910510F482E090E0E091D301F091D401F0
:100A000020E030E0C0E0D0E023C0408151814817B1
:100A10005907A8F04817590761F4828193812097FC
:100A200019F09B838A832EC09093D4018093D301C5
:100A300029C02115310529F04217530710F0A901EB
:100A400002C0BE01DF0102811381EF019A01F801AA
:100A50003097D9F62115310509F1281B390B2430BF
:100A6000310590F412968D919C9113976115710543
:100A700021F0FB019383828304C09093D40180937F
:100A8000D301FD01329644C0FD01E20FF31F8193B3
:100A90009193225031092D933C933AC02091D1017A
:100AA0003091D201232B41F42091620030916300F8
:100AB0003093D2012093D1012091600030916100E8
:100AC0002115310541F42DB73EB740916400509196
:100AD0006500241B350BE091D101F091D201E217A2
:100AE000F307A0F42E1B3F0B2817390778F0AC0151
:100AF0004E5F5F4F2417350748F04E0F5F1F50932E
:100B0000D2014093D1018193919302C0E0E0F0E0E3
:100B1000CF01DF91CF911F910F910895EF92FF9236
:100B20000F931F93CF93DF93009709F48FC0DC01DD
:100B3000129713961C921E921297E090D301F09098
:100B4000D401E114F10489F42D913C911197280FFF
:100B5000391F8091D1019091D2018217930789F5B5
:100B6000B093D201A093D10171C0E70120E030E041
:100B700001C0EA01CA17DB0738F44A815B819E0194
:100B800041155105B1F722C0BC0162507109FB014A
:100B9000D383C28300811181AC01400F511F4C17D8
:100BA0005D0761F448815981400F511F4E5F5F4FCF
:100BB000518340834A815B815383428321153105F0
:100BC00029F4B093D401A093D30140C0F901B383B9
:100BD000A283E90169917991C60FD71FAC17BD07B0
:100BE00079F4DC015E914E91460F571F4E5F5F4FC7
:100BF0005183408312968D919C91139793838283A6
:100C0000A0E0B0E002C0D7017C01F70182819381AE
:100C10000097C9F7C701029620813181820F931F87
:100C20002091D1013091D2012817390779F410971A
:100C300029F41092D4011092D30104C013961C928F
:100C40001E921297F092D201E092D101DF91CF91E2
:100C50001F910F91FF90EF9008951F920F920FB682
:100C60000F9211242F933F938F939F93AF93BF9332
:100C700080910E0190910F01A0911001B09111018E
:100C800030911601232F2D5F2D3720F40196A11DE1
:100C9000B11D05C0232F2A570296A11DB11D209317
:100CA000160180930E0190930F01A0931001B09351
:100CB00011018091120190911301A0911401B09142
:100CC00015010196A11DB11D80931201909313018E
:100CD000A0931401B0931501BF91AF919F918F9193
:100CE0003F912F910F900FBE0F901F9018950F936B
:100CF0001F939FB7F8940091120110911301209156
:100D000014013091150182B708B600FE06C08F3F6E
:100D100021F00F5F1F4F2F4F3F4F9FBF322F212FCB
:100D2000102F0027080F111D211D311D42E0000F5B
:100D3000111F221F331F4A95D1F7B801C9011F9116
:100D40000F910895CF92DF92EF92FF92CF93DF93AE
:100D50006B017C01CCDFEB010DC0C9DF6C1B7D0B8F
:100D6000683E734038F081E0C81AD108E108F10804
:100D7000C851DC4FC114D104E104F10471F7DF91D3
:100D8000CF91FF90EF90DF90CF900895789483B744
:100D9000826083BF83B7816083BF89B7816089BF69
:100DA0001EBC8EB582608EBD8EB581608EBD8FB546
:100DB00081608FBD85B5846085BD85B5806485BD46
:100DC000329A319A309A379A1AB808951F93CF936E
:100DD000DF93182FEB0161E042D0209711F460E01F
:100DE00004C0CF3FD10531F461E0812FDF91CF9175
:100DF0001F916DC0E12FF0E0EC52FF4FE491E43021
:100E000051F0E53071F0E33089F48FB580688FBD23
:100E1000DBBDCABD0FC08FB580628FBDD9BDC8BD57
:100E200009C085B5806285BDC3BD04C0C038D10589
:100E3000DCF6D5CFDF91CF911F910895843039F042
:100E4000853049F0833051F48FB58F7702C08FB56C
:100E50008F7D8FBD089585B58F7D85BD0895CF9316
:100E6000DF9390E0FC01E851FF4F4491FC01E45016
:100E7000FF4F8491882341F190E0880F991FFC0176
:100E8000E65EFE4F25913491D901805F9E4FFC01B3
:100E900085919491C82FD92F9FB7F8948C916111A7
:100EA00006C0409584238C938881842308C06230D7
:100EB00041F4242F209582238C938881842B88836E
:100EC00002C0842B8C939FBFDF91CF9108950F9325
:100ED0001F93CF93DF931F92CDB7DEB7282F30E05B
:100EE000F901EC52FF4F8491F901E851FF4F149141
:100EF000F901E450FF4F04910023C9F0882319F051
:100F000069839CDF6981E02FF0E0EE0FFF1FE05F57
:100F1000FE4F85919491DC019FB7F8948C916111FB
:100F200003C01095812301C0812B8C939FBF0F902C
:100F3000DF91CF911F910F91089528DF21D9C7E745
:100F4000D8E073D92097E9F3D2D0FBCFFC01848598
:100F50009585FC01E05CFF4F20813181FC01EE5B57
:100F6000FF4F80819181281B390B2F733327C901D3
:100F70000895FC0184859585FC01E05CFF4F40816C
:100F80005181FC01EE5BFF4F2081318142175307F5
:100F900041F00190F081E02DE80FF91F208130E051
:100FA00002C02FEF3FEFC9010895FC0184859585AC
:100FB000FC01E05CFF4F40815181FC01EE5BFF4F83
:100FC000208131814217530781F0A081B181A80FA0
:100FD000B91F8C91208131812F5F3F4F2F733327B1
:100FE00031832083282F30E002C02FEF3FEFC9016B
:100FF0000895FC0181A1882329F0A489B5898C91E9
:1010000086FFFBCF11A20895CF93DF93FC012685C5
:101010003785D901A05CBF4F8D919C9111970196A6
:101020008F739927E901CE5BDF4F4881598184177F
:101030009507D9F30D90BC91A02DA20FB31F6C930F
:10104000A685B785A05CBF4F11969C938E93A68909
:10105000B7892C9181E090E0078C02C0880F991F1E
:101060000A94E2F7282B2C9381E081A30488F58968
:10107000E02D80818064808381E090E0DF91CF91DA
:1010800008951F920F920FB60F9211242F933F9342
:101090004F938F939F93EF93FF935A991BC04CB13B
:1010A0008091BD019091BE0101968F739927209187
:1010B000BF013091C0018217930769F0E091BD0133
:1010C000F091BE01E358FE4F40839093BE018093A0
:1010D000BD0101C08CB1FF91EF919F918F914F9114
:1010E0003F912F910F900FBE0F901F90189587E1A1
:1010F00091E02CDF892B09F0D3C808951F920F923D
:101100000FB60F9211242F933F938F939F93EF93DA
:10111000FF932091790130917A0180917B01909128
:101120007C012817390711F4559813C0E0917B0111
:10113000F0917C01E75CFE4F208180917B019091D2
:101140007C0101968F73992790937C0180937B019A
:101150002CB9FF91EF919F918F913F912F910F901B
:101160000FBE0F901F901895CF92DF92EF92FF92D3
:10117000CF93DF93EC016A017B01411581EE5807A3
:1011800061057105F1F0EC89FD8981E090E008A02E
:1011900002C0880F991F0A94E2F7808360E079E02B
:1011A0008DE390E0A7019601EDD02150310941096E
:1011B00051095695479537952795211580E13807B0
:1011C00090F0EC89FD89108260E874E88EE190E08F
:1011D000A7019601D7D021503109410951095695EF
:1011E000479537952795E889F9893083EA89FB89FE
:1011F000208319A2EE89FF89408181E090E09C0163
:101200000C8C02C0220F331F0A94E2F7422B40835A
:10121000EE89FF8940819C010D8C02C0220F331F93
:101220000A94E2F7422B4083EE89FF8940819C01BA
:101230000E8C02C0220F331F0A94E2F7422B408328
:10124000EE89FF8920810F8C02C0880F991F0A94B4
:10125000E2F7809582238083DF91CF91FF90EF901A
:10126000DF90CF90089510921A011092190188EE24
:1012700093E0A0E0B0E080931B0190931C01A09349
:101280001D01B0931E018CE790E0909318018093AC
:1012900017018DE791E0909324018093230189E366
:1012A00091E0909326018093250180E490E0909353
:1012B00028018093270129E230E030932A0120930E
:1012C00029012BE230E030932C0120932B012AE2FC
:1012D00030E030932E0120932D01909330018093C4
:1012E0002F018CE290E0909332018093310184E0F1
:1012F0008093330183E08093340187E0809335014C
:1013000085E08093360181E0809337010895CF9284
:10131000DF92EF92FF920F931F93CF93DF936C01B5
:10132000EB017A01E60EF71E00E010E00BC06991B8
:10133000D601ED91FC910190F081E02DC601099557
:10134000080F191FCE15DF0591F7C801DF91CF9166
:101350001F910F91FF90EF90DF90CF90089597FB32
:10136000072E16F4009406D077FD08D02DD007FC88
:1013700005D03EF4909581959F4F089570956195A5
:101380007F4F0895A1E21A2EAA1BBB1BFD010DC0C1
:10139000AA1FBB1FEE1FFF1FA217B307E407F50725
:1013A00020F0A21BB30BE40BF50B661F771F881F01
:1013B000991F1A9469F760957095809590959B0197
:1013C000AC01BD01CF010895AA1BBB1B51E107C0B1
:1013D000AA1FBB1FA617B70710F0A61BB70B881FC5
:1013E000991F5A95A9F780959095BC01CD01089554
:1013F000EE0FFF1F0590F491E02D0994FB01DC0135
:1014000002C001900D9241505040D8F70895F894D1
:02141000FFCF0C
:101412000000D50180004672616E6B6573740069CD
:10142200746F20202020200000000000040887099B
:08143200A607D507B907F90769
:00000001FF
